{
    "contractName": "JiblycoinBurn",
    "abi": [
        {
            "inputs": [],
            "stateMutability": "nonpayable",
            "type": "constructor"
        },
        {
            "inputs": [],
            "name": "AlreadyPaused",
            "type": "error"
        },
        {
            "inputs": [],
            "name": "BurnZero",
            "type": "error"
        },
        {
            "inputs": [],
            "name": "InsufficientBalance",
            "type": "error"
        },
        {
            "inputs": [],
            "name": "NotAuthorized",
            "type": "error"
        },
        {
            "inputs": [],
            "name": "NotPaused",
            "type": "error"
        },
        {
            "inputs": [],
            "name": "ReentrantCall",
            "type": "error"
        },
        {
            "anonymous": false,
            "inputs": [
                {
                    "indexed": true,
                    "internalType": "address",
                    "name": "user",
                    "type": "address"
                },
                {
                    "indexed": false,
                    "internalType": "uint256",
                    "name": "amount",
                    "type": "uint256"
                }
            ],
            "name": "JiblyPointsBurned",
            "type": "event"
        },
        {
            "anonymous": false,
            "inputs": [
                {
                    "indexed": false,
                    "internalType": "address",
                    "name": "account",
                    "type": "address"
                }
            ],
            "name": "Paused",
            "type": "event"
        },
        {
            "anonymous": false,
            "inputs": [
                {
                    "indexed": false,
                    "internalType": "address",
                    "name": "account",
                    "type": "address"
                }
            ],
            "name": "Unpaused",
            "type": "event"
        },
        {
            "inputs": [
                {
                    "internalType": "uint256",
                    "name": "amount",
                    "type": "uint256"
                }
            ],
            "name": "burnJiblyPoints",
            "outputs": [],
            "stateMutability": "nonpayable",
            "type": "function"
        },
        {
            "inputs": [],
            "name": "pause",
            "outputs": [],
            "stateMutability": "nonpayable",
            "type": "function"
        },
        {
            "inputs": [],
            "name": "unpause",
            "outputs": [],
            "stateMutability": "nonpayable",
            "type": "function"
        }
    ],
    "bytecode": "6080806040523460235760015f5560ff196001541660015561036190816100288239f35b5f80fdfe6080806040526004361015610012575f80fd5b5f3560e01c9081633f4ba83a14610290575080638456cb59146101fe5763d4e971b81461003d575f80fd5b346101fa5760203660031901126101fa5760043560ff600154166101eb5760025f54146101dc5760025f5580156101cd57335f9081527fc8fcad8db84d3cc18b4c41d551ea0ee66dd599cde068d998e57d5e09332c135160205260409020819054106101be57335f9081527fc8fcad8db84d3cc18b4c41d551ea0ee66dd599cde068d998e57d5e09332c1351602052604090206100db82825461031e565b9055610108817fc8fcad8db84d3cc18b4c41d551ea0ee66dd599cde068d998e57d5e09332c13525461031e565b7fc8fcad8db84d3cc18b4c41d551ea0ee66dd599cde068d998e57d5e09332c1352557fc8fcad8db84d3cc18b4c41d551ea0ee66dd599cde068d998e57d5e09332c1353548181018091116101aa577fc8fcad8db84d3cc18b4c41d551ea0ee66dd599cde068d998e57d5e09332c1353556040519081527f5b24c86c4d8f46bc738a3b6d792ae2f7f0470e9d430c6d2d2b64c56b1c87eadb60203392a260015f55005b634e487b7160e01b5f52601160045260245ffd5b631e9acf1760e31b5f5260045ffd5b63bca9e8db60e01b5f5260045ffd5b6306fda65d60e31b5f5260045ffd5b631785c68160e01b5f5260045ffd5b5f80fd5b346101fa575f3660031901126101fa577fc8fcad8db84d3cc18b4c41d551ea0ee66dd599cde068d998e57d5e09332c131c546001600160a01b031633036102815760015460ff81166101eb5760019060ff1916176001557f62e78cea01bee320cd4e420270b5ea74000d11b0c9f74754ebdbfc544b05a2586020604051338152a1005b63ea8e4eb560e01b5f5260045ffd5b346101fa575f3660031901126101fa577fc8fcad8db84d3cc18b4c41d551ea0ee66dd599cde068d998e57d5e09332c131c546001600160a01b031633036102815760015460ff81161561030f5760ff19166001553381527f5db9ee0a495bf2e6ff9c91a7834c1ba4fdd244a5e8aa4e537bd38aeae4b073aa90602090a1005b636cd6020160e01b5f5260045ffd5b919082039182116101aa5756fea264697066735822122071b24ead29be2d86095c894df3a48d27d0d4979039f2527f9fe8db0a40e47a7764736f6c634300081c0033",
    "sourcePath": "c:/Users/APMG_LAdmin/Jiblycoin/contracts/burn/JiblycoinBurn.sol",
    "compiler": {
        "name": "solc",
        "version": "0.8.28+commit.7893614a"
    },
    "functionHashes": {
        "burnJiblyPoints(uint256)": "d4e971b8",
        "pause()": "8456cb59",
        "unpause()": "3f4ba83a"
    },
    "gasEstimates": {
        "creation": {
            "codeDepositCost": "173000",
            "executionCost": "46547",
            "totalCost": "219547"
        },
        "external": {
            "burnJiblyPoints(uint256)": "infinite",
            "pause()": "27568",
            "unpause()": "27538"
        }
    }
}